{
  "contractName": "LegalEntityVerification",
  "abi": [
    {
      "inputs": [],
      "stateMutability": "nonpayable",
      "type": "constructor"
    },
    {
      "anonymous": false,
      "inputs": [
        {
          "indexed": false,
          "internalType": "address",
          "name": "_address",
          "type": "address"
        }
      ],
      "name": "AccountUnverified",
      "type": "event"
    },
    {
      "anonymous": false,
      "inputs": [
        {
          "indexed": false,
          "internalType": "address",
          "name": "_address",
          "type": "address"
        }
      ],
      "name": "AccountVerified",
      "type": "event"
    },
    {
      "inputs": [],
      "name": "stateAuthority",
      "outputs": [
        {
          "internalType": "address",
          "name": "",
          "type": "address"
        }
      ],
      "stateMutability": "view",
      "type": "function",
      "constant": true
    },
    {
      "inputs": [
        {
          "internalType": "address",
          "name": "_address",
          "type": "address"
        }
      ],
      "name": "verify",
      "outputs": [],
      "stateMutability": "nonpayable",
      "type": "function"
    },
    {
      "inputs": [
        {
          "internalType": "address",
          "name": "_address",
          "type": "address"
        }
      ],
      "name": "unverify",
      "outputs": [],
      "stateMutability": "nonpayable",
      "type": "function"
    },
    {
      "inputs": [
        {
          "internalType": "address",
          "name": "_address",
          "type": "address"
        }
      ],
      "name": "isVerified",
      "outputs": [
        {
          "internalType": "bool",
          "name": "",
          "type": "bool"
        }
      ],
      "stateMutability": "view",
      "type": "function",
      "constant": true
    },
    {
      "inputs": [],
      "name": "getStateAuthorityAddress",
      "outputs": [
        {
          "internalType": "address",
          "name": "",
          "type": "address"
        }
      ],
      "stateMutability": "view",
      "type": "function",
      "constant": true
    }
  ],
  "bytecode": "0x608060405234801561001057600080fd5b5033600160006101000a81548173ffffffffffffffffffffffffffffffffffffffff021916908373ffffffffffffffffffffffffffffffffffffffff160217905550610763806100616000396000f3fe608060405234801561001057600080fd5b50600436106100575760003560e01c806363a9c3d71461005c578063b9209e3314610078578063cd799322146100a8578063d4167d6b146100c6578063e3f8adcd146100e4575b600080fd5b61007660048036038101906100719190610525565b610100565b005b610092600480360381019061008d9190610525565b61028f565b60405161009f919061056d565b60405180910390f35b6100b06102e4565b6040516100bd9190610597565b60405180910390f35b6100ce61030a565b6040516100db9190610597565b60405180910390f35b6100fe60048036038101906100f99190610525565b610334565b005b333373ffffffffffffffffffffffffffffffffffffffff168173ffffffffffffffffffffffffffffffffffffffff161461016f576040517f08c379a000000000000000000000000000000000000000000000000000000000815260040161016690610635565b60405180910390fd5b816000808273ffffffffffffffffffffffffffffffffffffffff1673ffffffffffffffffffffffffffffffffffffffff16815260200190815260200160002060009054906101000a900460ff16156101fc576040517f08c379a00000000000000000000000000000000000000000000000000000000081526004016101f3906106a1565b60405180910390fd5b60016000808573ffffffffffffffffffffffffffffffffffffffff1673ffffffffffffffffffffffffffffffffffffffff16815260200190815260200160002060006101000a81548160ff0219169083151502179055507fc88b0ced768fe051c9845644d6a9816bf01d50cddf9f724b089e09b022a67339836040516102829190610597565b60405180910390a1505050565b60008060008373ffffffffffffffffffffffffffffffffffffffff1673ffffffffffffffffffffffffffffffffffffffff16815260200190815260200160002060009054906101000a900460ff169050919050565b600160009054906101000a900473ffffffffffffffffffffffffffffffffffffffff1681565b6000600160009054906101000a900473ffffffffffffffffffffffffffffffffffffffff16905090565b333373ffffffffffffffffffffffffffffffffffffffff168173ffffffffffffffffffffffffffffffffffffffff16146103a3576040517f08c379a000000000000000000000000000000000000000000000000000000000815260040161039a90610635565b60405180910390fd5b816000808273ffffffffffffffffffffffffffffffffffffffff1673ffffffffffffffffffffffffffffffffffffffff16815260200190815260200160002060009054906101000a900460ff1661042f576040517f08c379a00000000000000000000000000000000000000000000000000000000081526004016104269061070d565b60405180910390fd5b60008060008573ffffffffffffffffffffffffffffffffffffffff1673ffffffffffffffffffffffffffffffffffffffff16815260200190815260200160002060006101000a81548160ff0219169083151502179055507f0a9af6fff443145f9e11bd8034bfffbc005a00afcb25d1b1d7ed8c82339a37d7836040516104b59190610597565b60405180910390a1505050565b600080fd5b600073ffffffffffffffffffffffffffffffffffffffff82169050919050565b60006104f2826104c7565b9050919050565b610502816104e7565b811461050d57600080fd5b50565b60008135905061051f816104f9565b92915050565b60006020828403121561053b5761053a6104c2565b5b600061054984828501610510565b91505092915050565b60008115159050919050565b61056781610552565b82525050565b6000602082019050610582600083018461055e565b92915050565b610591816104e7565b82525050565b60006020820190506105ac6000830184610588565b92915050565b600082825260208201905092915050565b7f43616c6c6572206973206e6f742074686520737461746520617574686f72697460008201527f792e000000000000000000000000000000000000000000000000000000000000602082015250565b600061061f6022836105b2565b915061062a826105c3565b604082019050919050565b6000602082019050818103600083015261064e81610612565b9050919050565b7f4164647265737320697320616c72656164792076657269666965642e00000000600082015250565b600061068b601c836105b2565b915061069682610655565b602082019050919050565b600060208201905081810360008301526106ba8161067e565b9050919050565b7f4164647265737320697320616c7265616479206e6f6e2d76657269666965642e600082015250565b60006106f76020836105b2565b9150610702826106c1565b602082019050919050565b60006020820190508181036000830152610726816106ea565b905091905056fea2646970667358221220b698c772e812ea4c2a42a67b5948afe517ec4789a631b86b4654e3372f79b8d364736f6c634300080b0033",
  "immutableReferences": {},
  "source": "// SPDX-License-Identifier: MIT\npragma solidity ^0.8.5;\n\n/// @title Legal Entity Verification\n/// @author Deniz Surmeli, Doukan Trksoy\n/// @notice Use it only for simulation.\n/// @dev It's used in ./Provenance.sol contract for address authorization \n\ncontract LegalEntityVerification {\n    /// @notice Verified addresses will return true.\n    mapping(address=>bool) verifiedAddresses;\n\n    /// @notice Deployer of the contract will be stored here for later checkings.\n    address public stateAuthority;\n\n    /// @notice Events for logging\n    event AccountVerified(address _address);\n    event AccountUnverified(address _address);\n\n    constructor(){\n        stateAuthority = msg.sender;\n    }\n\n    /// @notice Only state authority can perform actions.\n    /// @param _address Address to be queried.\n    modifier onlyStateAuthority(address _address){\n        require(_address == msg.sender,\"Caller is not the state authority.\");\n        _;\n    }\n    /// @notice Only non-verified addresses can perform actions.\n    /// @param _address Address to be queried.\n    modifier onlyNonVerified(address _address){\n        require(!(verifiedAddresses[_address]),\"Address is already verified.\");\n        _;\n    }\n    /// @notice Only verified addresses can perform actions.\n    /// @param _address Address to be queried.\n    modifier onlyVerified(address _address){\n        require(verifiedAddresses[_address],\"Address is already non-verified.\");\n        _;\n    }\n\n    /// @notice Verify an address.\n    /// @param _address address to be verified. \n    function verify(address _address) onlyStateAuthority(msg.sender) onlyNonVerified(_address) public {\n        verifiedAddresses[_address] = true;\n        emit AccountVerified(_address);\n    }\n    /// @notice Unverify an address.\n    /// @param _address address to be unverified. \n    function unverify(address _address) onlyStateAuthority(msg.sender) onlyVerified(_address) public{\n        verifiedAddresses[_address] = false;\n        emit AccountUnverified(_address);\n    }\n    \n    /// @notice Query the verification of an address.\n    /// @param _address address to be queried.\n    /// @return A bool whether the address is verified or not. \n    function isVerified(address _address) public view returns(bool){\n        return verifiedAddresses[_address];\n    }\n\n    /// @notice Address of the state authority.\n    /// @return Address of the state authority.\n    function getStateAuthorityAddress() public view returns(address){\n        return stateAuthority;\n    }\n}",
  "sourcePath": "/Users/denizsurmeli/Desktop/interface/contracts/LegalEntityVerification.sol",
  "compiler": {
    "name": "solc",
    "version": "0.8.11+commit.d7f03943.Emscripten.clang"
  },
  "schemaVersion": "3.4.4",
  "updatedAt": "2022-01-17T13:16:12.423Z",
  "networkType": "ethereum",
  "devdoc": {
    "author": "Deniz Surmeli, Doukan Trksoy",
    "details": "It's used in ./Provenance.sol contract for address authorization ",
    "kind": "dev",
    "methods": {
      "getStateAuthorityAddress()": {
        "returns": {
          "_0": "Address of the state authority."
        }
      },
      "isVerified(address)": {
        "params": {
          "_address": "address to be queried."
        },
        "returns": {
          "_0": "A bool whether the address is verified or not. "
        }
      },
      "unverify(address)": {
        "params": {
          "_address": "address to be unverified. "
        }
      },
      "verify(address)": {
        "params": {
          "_address": "address to be verified. "
        }
      }
    },
    "title": "Legal Entity Verification",
    "version": 1
  },
  "userdoc": {
    "events": {
      "AccountVerified(address)": {
        "notice": "Events for logging"
      }
    },
    "kind": "user",
    "methods": {
      "getStateAuthorityAddress()": {
        "notice": "Address of the state authority."
      },
      "isVerified(address)": {
        "notice": "Query the verification of an address."
      },
      "stateAuthority()": {
        "notice": "Deployer of the contract will be stored here for later checkings."
      },
      "unverify(address)": {
        "notice": "Unverify an address."
      },
      "verify(address)": {
        "notice": "Verify an address."
      }
    },
    "notice": "Use it only for simulation.",
    "version": 1
  }
}