{
  "contractName": "LegalEntityVerification",
  "abi": [
    {
      "inputs": [],
      "stateMutability": "nonpayable",
      "type": "constructor"
    },
    {
      "inputs": [],
      "name": "stateAuthority",
      "outputs": [
        {
          "internalType": "address",
          "name": "",
          "type": "address"
        }
      ],
      "stateMutability": "view",
      "type": "function",
      "constant": true
    },
    {
      "inputs": [
        {
          "internalType": "address",
          "name": "_address",
          "type": "address"
        }
      ],
      "name": "verify",
      "outputs": [],
      "stateMutability": "nonpayable",
      "type": "function"
    },
    {
      "inputs": [
        {
          "internalType": "address",
          "name": "_address",
          "type": "address"
        }
      ],
      "name": "isVerified",
      "outputs": [
        {
          "internalType": "bool",
          "name": "",
          "type": "bool"
        }
      ],
      "stateMutability": "view",
      "type": "function",
      "constant": true
    },
    {
      "inputs": [],
      "name": "getStateAuthorityAddress",
      "outputs": [
        {
          "internalType": "address",
          "name": "",
          "type": "address"
        }
      ],
      "stateMutability": "view",
      "type": "function",
      "constant": true
    }
  ],
  "bytecode": "0x608060405234801561001057600080fd5b5033600160006101000a81548173ffffffffffffffffffffffffffffffffffffffff021916908373ffffffffffffffffffffffffffffffffffffffff160217905550610390806100616000396000f3fe608060405234801561001057600080fd5b506004361061004c5760003560e01c806363a9c3d714610051578063b9209e331461006d578063cd7993221461009d578063d4167d6b146100bb575b600080fd5b61006b600480360381019061006691906102cd565b6100d9565b005b610087600480360381019061008291906102cd565b6101c5565b6040516100949190610315565b60405180910390f35b6100a561021a565b6040516100b2919061033f565b60405180910390f35b6100c3610240565b6040516100d0919061033f565b60405180910390f35b333373ffffffffffffffffffffffffffffffffffffffff168173ffffffffffffffffffffffffffffffffffffffff161461011257600080fd5b816000808273ffffffffffffffffffffffffffffffffffffffff1673ffffffffffffffffffffffffffffffffffffffff16815260200190815260200160002060009054906101000a900460ff161561016957600080fd5b60016000808573ffffffffffffffffffffffffffffffffffffffff1673ffffffffffffffffffffffffffffffffffffffff16815260200190815260200160002060006101000a81548160ff021916908315150217905550505050565b60008060008373ffffffffffffffffffffffffffffffffffffffff1673ffffffffffffffffffffffffffffffffffffffff16815260200190815260200160002060009054906101000a900460ff169050919050565b600160009054906101000a900473ffffffffffffffffffffffffffffffffffffffff1681565b6000600160009054906101000a900473ffffffffffffffffffffffffffffffffffffffff16905090565b600080fd5b600073ffffffffffffffffffffffffffffffffffffffff82169050919050565b600061029a8261026f565b9050919050565b6102aa8161028f565b81146102b557600080fd5b50565b6000813590506102c7816102a1565b92915050565b6000602082840312156102e3576102e261026a565b5b60006102f1848285016102b8565b91505092915050565b60008115159050919050565b61030f816102fa565b82525050565b600060208201905061032a6000830184610306565b92915050565b6103398161028f565b82525050565b60006020820190506103546000830184610330565b9291505056fea2646970667358221220239888bd202fba5a9c1ea803d1809ce600d62807671ecff68495ff1c29ef6e4864736f6c634300080b0033",
  "immutableReferences": {},
  "source": "// SPDX-License-Identifier: MIT\npragma solidity ^0.8.5;\n\n/// @title Legal Entity Verification\n/// @author Deniz Surmeli\n/// @author Doğukan Türksoy\n/// @notice Use it only for simulation.\n/// @dev It's used in ./Provenance.sol contract for address authorization \n\ncontract LegalEntityVerification {\n    /// @notice Verified addresses will return true.\n    mapping(address=>bool) verifiedAddresses;\n\n    /// @notice Deployer of the contract will be stored here for later checkings.\n    address public stateAuthority;\n\n    constructor(){\n        stateAuthority = msg.sender;\n    }\n\n    /// @notice Only state authority can perform actions.\n    /// @param _address Address to be queried.\n    modifier onlyStateAuthority(address _address){\n        require(_address == msg.sender);\n        _;\n    }\n    /// @notice Only non-verified addresses can perform actions.\n    /// @param _address Address to be queried.\n    modifier onlyNonVerified(address _address){\n        require(!(verifiedAddresses[_address]));\n        _;\n    }\n\n    /// @notice Verify an address.\n    /// @param _address address to be verified. \n    function verify(address _address) onlyStateAuthority(msg.sender) onlyNonVerified(_address) public {\n        verifiedAddresses[_address] = true;\n    }\n    \n    /// @notice Query the verification of an address.\n    /// @param _address address to be queried.\n    /// @return A bool whether the address is verified or not. \n    function isVerified(address _address) public view returns(bool){\n        return verifiedAddresses[_address];\n    }\n\n    /// @notice Address of the state authority.\n    /// @return Address of the state authority.\n    function getStateAuthorityAddress() public view returns(address){\n        return stateAuthority;\n    }\n}",
  "sourcePath": "/Users/denizsurmeli/Desktop/interface/contracts/LegalEntityVerification.sol",
  "compiler": {
    "name": "solc",
    "version": "0.8.11+commit.d7f03943.Emscripten.clang"
  },
  "schemaVersion": "3.4.4",
  "updatedAt": "2021-12-28T19:21:27.858Z",
  "networkType": "ethereum",
  "devdoc": {
    "author": "Deniz SurmeliDoğukan Türksoy",
    "details": "It's used in ./Provenance.sol contract for address authorization ",
    "kind": "dev",
    "methods": {
      "getStateAuthorityAddress()": {
        "returns": {
          "_0": "Address of the state authority."
        }
      },
      "isVerified(address)": {
        "params": {
          "_address": "address to be queried."
        },
        "returns": {
          "_0": "A bool whether the address is verified or not. "
        }
      },
      "verify(address)": {
        "params": {
          "_address": "address to be verified. "
        }
      }
    },
    "title": "Legal Entity Verification",
    "version": 1
  },
  "userdoc": {
    "kind": "user",
    "methods": {
      "getStateAuthorityAddress()": {
        "notice": "Address of the state authority."
      },
      "isVerified(address)": {
        "notice": "Query the verification of an address."
      },
      "stateAuthority()": {
        "notice": "Deployer of the contract will be stored here for later checkings."
      },
      "verify(address)": {
        "notice": "Verify an address."
      }
    },
    "notice": "Use it only for simulation.",
    "version": 1
  }
}