{
  "contractName": "Provenance",
  "abi": [
    {
      "inputs": [
        {
          "internalType": "string",
          "name": "name_",
          "type": "string"
        },
        {
          "internalType": "string",
          "name": "symbol_",
          "type": "string"
        },
        {
          "internalType": "address",
          "name": "auxAddress",
          "type": "address"
        }
      ],
      "stateMutability": "nonpayable",
      "type": "constructor"
    },
    {
      "anonymous": false,
      "inputs": [
        {
          "indexed": true,
          "internalType": "address",
          "name": "owner",
          "type": "address"
        },
        {
          "indexed": true,
          "internalType": "address",
          "name": "approved",
          "type": "address"
        },
        {
          "indexed": true,
          "internalType": "uint256",
          "name": "tokenId",
          "type": "uint256"
        }
      ],
      "name": "Approval",
      "type": "event"
    },
    {
      "anonymous": false,
      "inputs": [
        {
          "indexed": true,
          "internalType": "address",
          "name": "owner",
          "type": "address"
        },
        {
          "indexed": true,
          "internalType": "address",
          "name": "operator",
          "type": "address"
        },
        {
          "indexed": false,
          "internalType": "bool",
          "name": "approved",
          "type": "bool"
        }
      ],
      "name": "ApprovalForAll",
      "type": "event"
    },
    {
      "anonymous": false,
      "inputs": [
        {
          "indexed": false,
          "internalType": "uint256",
          "name": "tokenId",
          "type": "uint256"
        },
        {
          "indexed": false,
          "internalType": "address",
          "name": "tokenOwner",
          "type": "address"
        }
      ],
      "name": "TokenApproved",
      "type": "event"
    },
    {
      "anonymous": false,
      "inputs": [
        {
          "indexed": false,
          "internalType": "uint256",
          "name": "tokenId",
          "type": "uint256"
        },
        {
          "indexed": false,
          "internalType": "address",
          "name": "from",
          "type": "address"
        },
        {
          "indexed": false,
          "internalType": "address",
          "name": "to",
          "type": "address"
        }
      ],
      "name": "TokenTransferred",
      "type": "event"
    },
    {
      "anonymous": false,
      "inputs": [
        {
          "indexed": true,
          "internalType": "address",
          "name": "from",
          "type": "address"
        },
        {
          "indexed": true,
          "internalType": "address",
          "name": "to",
          "type": "address"
        },
        {
          "indexed": true,
          "internalType": "uint256",
          "name": "tokenId",
          "type": "uint256"
        }
      ],
      "name": "Transfer",
      "type": "event"
    },
    {
      "inputs": [
        {
          "internalType": "address",
          "name": "to",
          "type": "address"
        },
        {
          "internalType": "uint256",
          "name": "tokenId",
          "type": "uint256"
        }
      ],
      "name": "approve",
      "outputs": [],
      "stateMutability": "nonpayable",
      "type": "function"
    },
    {
      "inputs": [
        {
          "internalType": "address",
          "name": "owner",
          "type": "address"
        }
      ],
      "name": "balanceOf",
      "outputs": [
        {
          "internalType": "uint256",
          "name": "",
          "type": "uint256"
        }
      ],
      "stateMutability": "view",
      "type": "function",
      "constant": true
    },
    {
      "inputs": [],
      "name": "factory",
      "outputs": [
        {
          "internalType": "address",
          "name": "",
          "type": "address"
        }
      ],
      "stateMutability": "view",
      "type": "function",
      "constant": true
    },
    {
      "inputs": [
        {
          "internalType": "uint256",
          "name": "tokenId",
          "type": "uint256"
        }
      ],
      "name": "getApproved",
      "outputs": [
        {
          "internalType": "address",
          "name": "",
          "type": "address"
        }
      ],
      "stateMutability": "view",
      "type": "function",
      "constant": true
    },
    {
      "inputs": [
        {
          "internalType": "address",
          "name": "owner",
          "type": "address"
        },
        {
          "internalType": "address",
          "name": "operator",
          "type": "address"
        }
      ],
      "name": "isApprovedForAll",
      "outputs": [
        {
          "internalType": "bool",
          "name": "",
          "type": "bool"
        }
      ],
      "stateMutability": "view",
      "type": "function",
      "constant": true
    },
    {
      "inputs": [],
      "name": "legalEntityContractAddress",
      "outputs": [
        {
          "internalType": "address",
          "name": "",
          "type": "address"
        }
      ],
      "stateMutability": "view",
      "type": "function",
      "constant": true
    },
    {
      "inputs": [],
      "name": "name",
      "outputs": [
        {
          "internalType": "string",
          "name": "",
          "type": "string"
        }
      ],
      "stateMutability": "view",
      "type": "function",
      "constant": true
    },
    {
      "inputs": [
        {
          "internalType": "uint256",
          "name": "tokenId",
          "type": "uint256"
        }
      ],
      "name": "ownerOf",
      "outputs": [
        {
          "internalType": "address",
          "name": "",
          "type": "address"
        }
      ],
      "stateMutability": "view",
      "type": "function",
      "constant": true
    },
    {
      "inputs": [
        {
          "internalType": "address",
          "name": "from",
          "type": "address"
        },
        {
          "internalType": "address",
          "name": "to",
          "type": "address"
        },
        {
          "internalType": "uint256",
          "name": "tokenId",
          "type": "uint256"
        }
      ],
      "name": "safeTransferFrom",
      "outputs": [],
      "stateMutability": "nonpayable",
      "type": "function"
    },
    {
      "inputs": [
        {
          "internalType": "address",
          "name": "from",
          "type": "address"
        },
        {
          "internalType": "address",
          "name": "to",
          "type": "address"
        },
        {
          "internalType": "uint256",
          "name": "tokenId",
          "type": "uint256"
        },
        {
          "internalType": "bytes",
          "name": "_data",
          "type": "bytes"
        }
      ],
      "name": "safeTransferFrom",
      "outputs": [],
      "stateMutability": "nonpayable",
      "type": "function"
    },
    {
      "inputs": [],
      "name": "serialId",
      "outputs": [
        {
          "internalType": "uint256",
          "name": "",
          "type": "uint256"
        }
      ],
      "stateMutability": "view",
      "type": "function",
      "constant": true
    },
    {
      "inputs": [
        {
          "internalType": "address",
          "name": "operator",
          "type": "address"
        },
        {
          "internalType": "bool",
          "name": "approved",
          "type": "bool"
        }
      ],
      "name": "setApprovalForAll",
      "outputs": [],
      "stateMutability": "nonpayable",
      "type": "function"
    },
    {
      "inputs": [
        {
          "internalType": "bytes4",
          "name": "interfaceId",
          "type": "bytes4"
        }
      ],
      "name": "supportsInterface",
      "outputs": [
        {
          "internalType": "bool",
          "name": "",
          "type": "bool"
        }
      ],
      "stateMutability": "view",
      "type": "function",
      "constant": true
    },
    {
      "inputs": [],
      "name": "symbol",
      "outputs": [
        {
          "internalType": "string",
          "name": "",
          "type": "string"
        }
      ],
      "stateMutability": "view",
      "type": "function",
      "constant": true
    },
    {
      "inputs": [
        {
          "internalType": "uint256",
          "name": "tokenId",
          "type": "uint256"
        }
      ],
      "name": "tokenURI",
      "outputs": [
        {
          "internalType": "string",
          "name": "",
          "type": "string"
        }
      ],
      "stateMutability": "view",
      "type": "function",
      "constant": true
    },
    {
      "inputs": [
        {
          "internalType": "address",
          "name": "from",
          "type": "address"
        },
        {
          "internalType": "address",
          "name": "to",
          "type": "address"
        },
        {
          "internalType": "uint256",
          "name": "tokenId",
          "type": "uint256"
        }
      ],
      "name": "transferFrom",
      "outputs": [],
      "stateMutability": "nonpayable",
      "type": "function"
    },
    {
      "inputs": [
        {
          "internalType": "uint256",
          "name": "_tokenId",
          "type": "uint256"
        }
      ],
      "name": "approveOwnership",
      "outputs": [],
      "stateMutability": "nonpayable",
      "type": "function"
    },
    {
      "inputs": [
        {
          "internalType": "address",
          "name": "_from",
          "type": "address"
        },
        {
          "internalType": "address",
          "name": "_to",
          "type": "address"
        },
        {
          "internalType": "uint256",
          "name": "_tokenId",
          "type": "uint256"
        }
      ],
      "name": "transferToken",
      "outputs": [],
      "stateMutability": "nonpayable",
      "type": "function"
    },
    {
      "inputs": [
        {
          "internalType": "uint256",
          "name": "_zipCode",
          "type": "uint256"
        }
      ],
      "name": "mintProductToken",
      "outputs": [],
      "stateMutability": "nonpayable",
      "type": "function"
    },
    {
      "inputs": [
        {
          "internalType": "uint256",
          "name": "_tokenId",
          "type": "uint256"
        }
      ],
      "name": "getTheOriginAddress",
      "outputs": [
        {
          "internalType": "address",
          "name": "",
          "type": "address"
        }
      ],
      "stateMutability": "view",
      "type": "function",
      "constant": true
    },
    {
      "inputs": [],
      "name": "getFactoryAddress",
      "outputs": [
        {
          "internalType": "address",
          "name": "",
          "type": "address"
        }
      ],
      "stateMutability": "view",
      "type": "function",
      "constant": true
    },
    {
      "inputs": [
        {
          "internalType": "uint256",
          "name": "_tokenId",
          "type": "uint256"
        }
      ],
      "name": "getApprovalState",
      "outputs": [
        {
          "internalType": "bool",
          "name": "",
          "type": "bool"
        }
      ],
      "stateMutability": "view",
      "type": "function",
      "constant": true
    },
    {
      "inputs": [
        {
          "internalType": "uint256",
          "name": "_tokenId",
          "type": "uint256"
        }
      ],
      "name": "getAllOwners",
      "outputs": [
        {
          "internalType": "address[]",
          "name": "",
          "type": "address[]"
        }
      ],
      "stateMutability": "view",
      "type": "function",
      "constant": true
    }
  ],
  "bytecode": "0x608060405260006006553480156200001657600080fd5b50604051620038963803806200389683398181016040528101906200003c9190620003af565b8282816000908051906020019062000056929190620000fd565b5080600190805190602001906200006f929190620000fd565b50505033600760006101000a81548173ffffffffffffffffffffffffffffffffffffffff021916908373ffffffffffffffffffffffffffffffffffffffff16021790555080600860006101000a81548173ffffffffffffffffffffffffffffffffffffffff021916908373ffffffffffffffffffffffffffffffffffffffff160217905550505050620004ae565b8280546200010b9062000478565b90600052602060002090601f0160209004810192826200012f57600085556200017b565b82601f106200014a57805160ff19168380011785556200017b565b828001600101855582156200017b579182015b828111156200017a5782518255916020019190600101906200015d565b5b5090506200018a91906200018e565b5090565b5b80821115620001a95760008160009055506001016200018f565b5090565b6000604051905090565b600080fd5b600080fd5b600080fd5b600080fd5b6000601f19601f8301169050919050565b7f4e487b7100000000000000000000000000000000000000000000000000000000600052604160045260246000fd5b6200021682620001cb565b810181811067ffffffffffffffff82111715620002385762000237620001dc565b5b80604052505050565b60006200024d620001ad565b90506200025b82826200020b565b919050565b600067ffffffffffffffff8211156200027e576200027d620001dc565b5b6200028982620001cb565b9050602081019050919050565b60005b83811015620002b657808201518184015260208101905062000299565b83811115620002c6576000848401525b50505050565b6000620002e3620002dd8462000260565b62000241565b905082815260208101848484011115620003025762000301620001c6565b5b6200030f84828562000296565b509392505050565b600082601f8301126200032f576200032e620001c1565b5b815162000341848260208601620002cc565b91505092915050565b600073ffffffffffffffffffffffffffffffffffffffff82169050919050565b600062000377826200034a565b9050919050565b62000389816200036a565b81146200039557600080fd5b50565b600081519050620003a9816200037e565b92915050565b600080600060608486031215620003cb57620003ca620001b7565b5b600084015167ffffffffffffffff811115620003ec57620003eb620001bc565b5b620003fa8682870162000317565b935050602084015167ffffffffffffffff8111156200041e576200041d620001bc565b5b6200042c8682870162000317565b92505060406200043f8682870162000398565b9150509250925092565b7f4e487b7100000000000000000000000000000000000000000000000000000000600052602260045260246000fd5b600060028204905060018216806200049157607f821691505b60208210811415620004a857620004a762000449565b5b50919050565b6133d880620004be6000396000f3fe608060405234801561001057600080fd5b506004361061014d5760003560e01c806395d89b41116100c3578063c87b56dd1161007c578063c87b56dd146103b2578063d30b1793146103e2578063d605880814610412578063d9043a811461042e578063e985e9c51461044a578063f5537ede1461047a5761014d565b806395d89b4114610302578063a22cb46514610320578063a9c2e36c1461033c578063ac463c651461035a578063b88d4fde14610378578063c45a0155146103945761014d565b80632644c979116101155780632644c9791461020857806342842e0e1461022657806361253a04146102425780636352211e1461027257806370a08231146102a25780637720cdd8146102d25761014d565b806301ffc9a71461015257806306fdde0314610182578063081812fc146101a0578063095ea7b3146101d057806323b872dd146101ec575b600080fd5b61016c60048036038101906101679190611f55565b610496565b6040516101799190611f9d565b60405180910390f35b61018a610578565b6040516101979190612051565b60405180910390f35b6101ba60048036038101906101b591906120a9565b61060a565b6040516101c79190612117565b60405180910390f35b6101ea60048036038101906101e5919061215e565b61068f565b005b6102066004803603810190610201919061219e565b6107a7565b005b610210610807565b60405161021d9190612117565b60405180910390f35b610240600480360381019061023b919061219e565b61082d565b005b61025c600480360381019061025791906120a9565b61084d565b60405161026991906122af565b60405180910390f35b61028c600480360381019061028791906120a9565b6108ee565b6040516102999190612117565b60405180910390f35b6102bc60048036038101906102b791906122d1565b6109a0565b6040516102c9919061230d565b60405180910390f35b6102ec60048036038101906102e791906120a9565b610a58565b6040516102f99190611f9d565b60405180910390f35b61030a610a82565b6040516103179190612051565b60405180910390f35b61033a60048036038101906103359190612354565b610b14565b005b610344610b2a565b6040516103519190612117565b60405180910390f35b610362610b54565b60405161036f919061230d565b60405180910390f35b610392600480360381019061038d91906124c9565b610b5a565b005b61039c610bbc565b6040516103a99190612117565b60405180910390f35b6103cc60048036038101906103c791906120a9565b610be2565b6040516103d99190612051565b60405180910390f35b6103fc60048036038101906103f791906120a9565b610c89565b6040516104099190612117565b60405180910390f35b61042c600480360381019061042791906120a9565b610ce3565b005b610448600480360381019061044391906120a9565b610e6c565b005b610464600480360381019061045f919061254c565b610fcd565b6040516104719190611f9d565b60405180910390f35b610494600480360381019061048f919061219e565b611061565b005b60007f80ac58cd000000000000000000000000000000000000000000000000000000007bffffffffffffffffffffffffffffffffffffffffffffffffffffffff1916827bffffffffffffffffffffffffffffffffffffffffffffffffffffffff1916148061056157507f5b5e139f000000000000000000000000000000000000000000000000000000007bffffffffffffffffffffffffffffffffffffffffffffffffffffffff1916827bffffffffffffffffffffffffffffffffffffffffffffffffffffffff1916145b806105715750610570826112f0565b5b9050919050565b606060008054610587906125bb565b80601f01602080910402602001604051908101604052809291908181526020018280546105b3906125bb565b80156106005780601f106105d557610100808354040283529160200191610600565b820191906000526020600020905b8154815290600101906020018083116105e357829003601f168201915b5050505050905090565b60006106158261135a565b610654576040517f08c379a000000000000000000000000000000000000000000000000000000000815260040161064b9061265f565b60405180910390fd5b6004600083815260200190815260200160002060009054906101000a900473ffffffffffffffffffffffffffffffffffffffff169050919050565b600061069a826108ee565b90508073ffffffffffffffffffffffffffffffffffffffff168373ffffffffffffffffffffffffffffffffffffffff16141561070b576040517f08c379a0000000000000000000000000000000000000000000000000000000008152600401610702906126f1565b60405180910390fd5b8073ffffffffffffffffffffffffffffffffffffffff1661072a6113c6565b73ffffffffffffffffffffffffffffffffffffffff1614806107595750610758816107536113c6565b610fcd565b5b610798576040517f08c379a000000000000000000000000000000000000000000000000000000000815260040161078f90612783565b60405180910390fd5b6107a283836113ce565b505050565b6107b86107b26113c6565b82611487565b6107f7576040517f08c379a00000000000000000000000000000000000000000000000000000000081526004016107ee90612815565b60405180910390fd5b610802838383611565565b505050565b600860009054906101000a900473ffffffffffffffffffffffffffffffffffffffff1681565b61084883838360405180602001604052806000815250610b5a565b505050565b6060600a60008381526020019081526020016000208054806020026020016040519081016040528092919081815260200182805480156108e257602002820191906000526020600020905b8160009054906101000a900473ffffffffffffffffffffffffffffffffffffffff1673ffffffffffffffffffffffffffffffffffffffff1681526020019060010190808311610898575b50505050509050919050565b6000806002600084815260200190815260200160002060009054906101000a900473ffffffffffffffffffffffffffffffffffffffff169050600073ffffffffffffffffffffffffffffffffffffffff168173ffffffffffffffffffffffffffffffffffffffff161415610997576040517f08c379a000000000000000000000000000000000000000000000000000000000815260040161098e906128a7565b60405180910390fd5b80915050919050565b60008073ffffffffffffffffffffffffffffffffffffffff168273ffffffffffffffffffffffffffffffffffffffff161415610a11576040517f08c379a0000000000000000000000000000000000000000000000000000000008152600401610a0890612939565b60405180910390fd5b600360008373ffffffffffffffffffffffffffffffffffffffff1673ffffffffffffffffffffffffffffffffffffffff168152602001908152602001600020549050919050565b6000600b600083815260200190815260200160002060009054906101000a900460ff169050919050565b606060018054610a91906125bb565b80601f0160208091040260200160405190810160405280929190818152602001828054610abd906125bb565b8015610b0a5780601f10610adf57610100808354040283529160200191610b0a565b820191906000526020600020905b815481529060010190602001808311610aed57829003601f168201915b5050505050905090565b610b26610b1f6113c6565b83836117c1565b5050565b6000600760009054906101000a900473ffffffffffffffffffffffffffffffffffffffff16905090565b60065481565b610b6b610b656113c6565b83611487565b610baa576040517f08c379a0000000000000000000000000000000000000000000000000000000008152600401610ba190612815565b60405180910390fd5b610bb68484848461192e565b50505050565b600760009054906101000a900473ffffffffffffffffffffffffffffffffffffffff1681565b6060610bed8261135a565b610c2c576040517f08c379a0000000000000000000000000000000000000000000000000000000008152600401610c23906129cb565b60405180910390fd5b6000610c3661198a565b90506000815111610c565760405180602001604052806000815250610c81565b80610c60846119a1565b604051602001610c71929190612a27565b6040516020818303038152906040525b915050919050565b6000600a6000838152602001908152602001600020600081548110610cb157610cb0612a4b565b5b9060005260206000200160009054906101000a900473ffffffffffffffffffffffffffffffffffffffff169050919050565b80338073ffffffffffffffffffffffffffffffffffffffff16610d05836108ee565b73ffffffffffffffffffffffffffffffffffffffff1614610d5b576040517f08c379a0000000000000000000000000000000000000000000000000000000008152600401610d5290612aec565b60405180910390fd5b8260011515600b600083815260200190815260200160002060009054906101000a900460ff16151514610d8d57600080fd5b600a6000858152602001908152602001600020339080600181540180825580915050600190039060005260206000200160009091909190916101000a81548173ffffffffffffffffffffffffffffffffffffffff021916908373ffffffffffffffffffffffffffffffffffffffff1602179055506000600b600086815260200190815260200160002060006101000a81548160ff0219169083151502179055507f0d821d275fa272e0bc748606da4498a18d4c968c9efc30635e7db2a8d81bd0858433604051610e5e929190612b0c565b60405180910390a150505050565b338073ffffffffffffffffffffffffffffffffffffffff16600760009054906101000a900473ffffffffffffffffffffffffffffffffffffffff1673ffffffffffffffffffffffffffffffffffffffff1614610efd576040517f08c379a0000000000000000000000000000000000000000000000000000000008152600401610ef490612ba7565b60405180910390fd5b600060065490506000839050610f133383611b02565b604051806040016040528083604051602001610f2f9190612be8565b604051602081830303815290604052805190602001208152602001828152506009600084815260200190815260200160002060008201518160000155602082015181600101559050506001600b600084815260200190815260200160002060006101000a81548160ff021916908315150217905550610fad82610ce3565b600160066000828254610fc09190612c32565b9250508190555050505050565b6000600560008473ffffffffffffffffffffffffffffffffffffffff1673ffffffffffffffffffffffffffffffffffffffff16815260200190815260200160002060008373ffffffffffffffffffffffffffffffffffffffff1673ffffffffffffffffffffffffffffffffffffffff16815260200190815260200160002060009054906101000a900460ff16905092915050565b80838073ffffffffffffffffffffffffffffffffffffffff16611083836108ee565b73ffffffffffffffffffffffffffffffffffffffff16146110d9576040517f08c379a00000000000000000000000000000000000000000000000000000000081526004016110d090612aec565b60405180910390fd5b836000600860009054906101000a900473ffffffffffffffffffffffffffffffffffffffff1690508073ffffffffffffffffffffffffffffffffffffffff1663b9209e33836040518263ffffffff1660e01b815260040161113a9190612117565b602060405180830381865afa158015611157573d6000803e3d6000fd5b505050506040513d601f19601f8201168201806040525081019061117b9190612c9d565b6111ba576040517f08c379a00000000000000000000000000000000000000000000000000000000081526004016111b190612d3c565b60405180910390fd5b84600073ffffffffffffffffffffffffffffffffffffffff166111dc826108ee565b73ffffffffffffffffffffffffffffffffffffffff161415611233576040517f08c379a000000000000000000000000000000000000000000000000000000000815260040161122a90612dce565b60405180910390fd5b61123c866108ee565b73ffffffffffffffffffffffffffffffffffffffff168773ffffffffffffffffffffffffffffffffffffffff16141561127457600080fd5b61127f888888611565565b6001600b600088815260200190815260200160002060006101000a81548160ff0219169083151502179055507fa84f763be5bb36163517fb87c7af39f875a97866fdf7806eb1b3eac837ae35ea8689896040516112de93929190612dee565b60405180910390a15050505050505050565b60007f01ffc9a7000000000000000000000000000000000000000000000000000000007bffffffffffffffffffffffffffffffffffffffffffffffffffffffff1916827bffffffffffffffffffffffffffffffffffffffffffffffffffffffff1916149050919050565b60008073ffffffffffffffffffffffffffffffffffffffff166002600084815260200190815260200160002060009054906101000a900473ffffffffffffffffffffffffffffffffffffffff1673ffffffffffffffffffffffffffffffffffffffff1614159050919050565b600033905090565b816004600083815260200190815260200160002060006101000a81548173ffffffffffffffffffffffffffffffffffffffff021916908373ffffffffffffffffffffffffffffffffffffffff160217905550808273ffffffffffffffffffffffffffffffffffffffff16611441836108ee565b73ffffffffffffffffffffffffffffffffffffffff167f8c5be1e5ebec7d5bd14f71427d1e84f3dd0314c0f7b2291e5b200ac8c7c3b92560405160405180910390a45050565b60006114928261135a565b6114d1576040517f08c379a00000000000000000000000000000000000000000000000000000000081526004016114c890612e97565b60405180910390fd5b60006114dc836108ee565b90508073ffffffffffffffffffffffffffffffffffffffff168473ffffffffffffffffffffffffffffffffffffffff16148061154b57508373ffffffffffffffffffffffffffffffffffffffff166115338461060a565b73ffffffffffffffffffffffffffffffffffffffff16145b8061155c575061155b8185610fcd565b5b91505092915050565b8273ffffffffffffffffffffffffffffffffffffffff16611585826108ee565b73ffffffffffffffffffffffffffffffffffffffff16146115db576040517f08c379a00000000000000000000000000000000000000000000000000000000081526004016115d290612f29565b60405180910390fd5b600073ffffffffffffffffffffffffffffffffffffffff168273ffffffffffffffffffffffffffffffffffffffff16141561164b576040517f08c379a000000000000000000000000000000000000000000000000000000000815260040161164290612fbb565b60405180910390fd5b611656838383611b20565b6116616000826113ce565b6001600360008573ffffffffffffffffffffffffffffffffffffffff1673ffffffffffffffffffffffffffffffffffffffff16815260200190815260200160002060008282546116b19190612fdb565b925050819055506001600360008473ffffffffffffffffffffffffffffffffffffffff1673ffffffffffffffffffffffffffffffffffffffff16815260200190815260200160002060008282546117089190612c32565b92505081905550816002600083815260200190815260200160002060006101000a81548173ffffffffffffffffffffffffffffffffffffffff021916908373ffffffffffffffffffffffffffffffffffffffff160217905550808273ffffffffffffffffffffffffffffffffffffffff168473ffffffffffffffffffffffffffffffffffffffff167fddf252ad1be2c89b69c2b068fc378daa952ba7f163c4a11628f55a4df523b3ef60405160405180910390a4505050565b8173ffffffffffffffffffffffffffffffffffffffff168373ffffffffffffffffffffffffffffffffffffffff161415611830576040517f08c379a00000000000000000000000000000000000000000000000000000000081526004016118279061305b565b60405180910390fd5b80600560008573ffffffffffffffffffffffffffffffffffffffff1673ffffffffffffffffffffffffffffffffffffffff16815260200190815260200160002060008473ffffffffffffffffffffffffffffffffffffffff1673ffffffffffffffffffffffffffffffffffffffff16815260200190815260200160002060006101000a81548160ff0219169083151502179055508173ffffffffffffffffffffffffffffffffffffffff168373ffffffffffffffffffffffffffffffffffffffff167f17307eab39ab6107e8899845ad3d59bd9653f200f220920489ca2b5937696c31836040516119219190611f9d565b60405180910390a3505050565b611939848484611565565b61194584848484611b25565b611984576040517f08c379a000000000000000000000000000000000000000000000000000000000815260040161197b906130ed565b60405180910390fd5b50505050565b606060405180602001604052806000815250905090565b606060008214156119e9576040518060400160405280600181526020017f30000000000000000000000000000000000000000000000000000000000000008152509050611afd565b600082905060005b60008214611a1b578080611a049061310d565b915050600a82611a149190613185565b91506119f1565b60008167ffffffffffffffff811115611a3757611a3661239e565b5b6040519080825280601f01601f191660200182016040528015611a695781602001600182028036833780820191505090505b5090505b60008514611af657600182611a829190612fdb565b9150600a85611a9191906131b6565b6030611a9d9190612c32565b60f81b818381518110611ab357611ab2612a4b565b5b60200101907effffffffffffffffffffffffffffffffffffffffffffffffffffffffffffff1916908160001a905350600a85611aef9190613185565b9450611a6d565b8093505050505b919050565b611b1c828260405180602001604052806000815250611cad565b5050565b505050565b6000611b468473ffffffffffffffffffffffffffffffffffffffff16611d08565b15611ca0578373ffffffffffffffffffffffffffffffffffffffff1663150b7a02611b6f6113c6565b8786866040518563ffffffff1660e01b8152600401611b91949392919061323c565b6020604051808303816000875af1925050508015611bcd57506040513d601f19601f82011682018060405250810190611bca919061329d565b60015b611c50573d8060008114611bfd576040519150601f19603f3d011682016040523d82523d6000602084013e611c02565b606091505b50600081511415611c48576040517f08c379a0000000000000000000000000000000000000000000000000000000008152600401611c3f906130ed565b60405180910390fd5b805181602001fd5b63150b7a0260e01b7bffffffffffffffffffffffffffffffffffffffffffffffffffffffff1916817bffffffffffffffffffffffffffffffffffffffffffffffffffffffff191614915050611ca5565b600190505b949350505050565b611cb78383611d1b565b611cc46000848484611b25565b611d03576040517f08c379a0000000000000000000000000000000000000000000000000000000008152600401611cfa906130ed565b60405180910390fd5b505050565b600080823b905060008111915050919050565b600073ffffffffffffffffffffffffffffffffffffffff168273ffffffffffffffffffffffffffffffffffffffff161415611d8b576040517f08c379a0000000000000000000000000000000000000000000000000000000008152600401611d8290613316565b60405180910390fd5b611d948161135a565b15611dd4576040517f08c379a0000000000000000000000000000000000000000000000000000000008152600401611dcb90613382565b60405180910390fd5b611de060008383611b20565b6001600360008473ffffffffffffffffffffffffffffffffffffffff1673ffffffffffffffffffffffffffffffffffffffff1681526020019081526020016000206000828254611e309190612c32565b92505081905550816002600083815260200190815260200160002060006101000a81548173ffffffffffffffffffffffffffffffffffffffff021916908373ffffffffffffffffffffffffffffffffffffffff160217905550808273ffffffffffffffffffffffffffffffffffffffff16600073ffffffffffffffffffffffffffffffffffffffff167fddf252ad1be2c89b69c2b068fc378daa952ba7f163c4a11628f55a4df523b3ef60405160405180910390a45050565b6000604051905090565b600080fd5b600080fd5b60007fffffffff0000000000000000000000000000000000000000000000000000000082169050919050565b611f3281611efd565b8114611f3d57600080fd5b50565b600081359050611f4f81611f29565b92915050565b600060208284031215611f6b57611f6a611ef3565b5b6000611f7984828501611f40565b91505092915050565b60008115159050919050565b611f9781611f82565b82525050565b6000602082019050611fb26000830184611f8e565b92915050565b600081519050919050565b600082825260208201905092915050565b60005b83811015611ff2578082015181840152602081019050611fd7565b83811115612001576000848401525b50505050565b6000601f19601f8301169050919050565b600061202382611fb8565b61202d8185611fc3565b935061203d818560208601611fd4565b61204681612007565b840191505092915050565b6000602082019050818103600083015261206b8184612018565b905092915050565b6000819050919050565b61208681612073565b811461209157600080fd5b50565b6000813590506120a38161207d565b92915050565b6000602082840312156120bf576120be611ef3565b5b60006120cd84828501612094565b91505092915050565b600073ffffffffffffffffffffffffffffffffffffffff82169050919050565b6000612101826120d6565b9050919050565b612111816120f6565b82525050565b600060208201905061212c6000830184612108565b92915050565b61213b816120f6565b811461214657600080fd5b50565b60008135905061215881612132565b92915050565b6000806040838503121561217557612174611ef3565b5b600061218385828601612149565b925050602061219485828601612094565b9150509250929050565b6000806000606084860312156121b7576121b6611ef3565b5b60006121c586828701612149565b93505060206121d686828701612149565b92505060406121e786828701612094565b9150509250925092565b600081519050919050565b600082825260208201905092915050565b6000819050602082019050919050565b612226816120f6565b82525050565b6000612238838361221d565b60208301905092915050565b6000602082019050919050565b600061225c826121f1565b61226681856121fc565b93506122718361220d565b8060005b838110156122a2578151612289888261222c565b975061229483612244565b925050600181019050612275565b5085935050505092915050565b600060208201905081810360008301526122c98184612251565b905092915050565b6000602082840312156122e7576122e6611ef3565b5b60006122f584828501612149565b91505092915050565b61230781612073565b82525050565b600060208201905061232260008301846122fe565b92915050565b61233181611f82565b811461233c57600080fd5b50565b60008135905061234e81612328565b92915050565b6000806040838503121561236b5761236a611ef3565b5b600061237985828601612149565b925050602061238a8582860161233f565b9150509250929050565b600080fd5b600080fd5b7f4e487b7100000000000000000000000000000000000000000000000000000000600052604160045260246000fd5b6123d682612007565b810181811067ffffffffffffffff821117156123f5576123f461239e565b5b80604052505050565b6000612408611ee9565b905061241482826123cd565b919050565b600067ffffffffffffffff8211156124345761243361239e565b5b61243d82612007565b9050602081019050919050565b82818337600083830152505050565b600061246c61246784612419565b6123fe565b90508281526020810184848401111561248857612487612399565b5b61249384828561244a565b509392505050565b600082601f8301126124b0576124af612394565b5b81356124c0848260208601612459565b91505092915050565b600080600080608085870312156124e3576124e2611ef3565b5b60006124f187828801612149565b945050602061250287828801612149565b935050604061251387828801612094565b925050606085013567ffffffffffffffff81111561253457612533611ef8565b5b6125408782880161249b565b91505092959194509250565b6000806040838503121561256357612562611ef3565b5b600061257185828601612149565b925050602061258285828601612149565b9150509250929050565b7f4e487b7100000000000000000000000000000000000000000000000000000000600052602260045260246000fd5b600060028204905060018216806125d357607f821691505b602082108114156125e7576125e661258c565b5b50919050565b7f4552433732313a20617070726f76656420717565727920666f72206e6f6e657860008201527f697374656e7420746f6b656e0000000000000000000000000000000000000000602082015250565b6000612649602c83611fc3565b9150612654826125ed565b604082019050919050565b600060208201905081810360008301526126788161263c565b9050919050565b7f4552433732313a20617070726f76616c20746f2063757272656e74206f776e6560008201527f7200000000000000000000000000000000000000000000000000000000000000602082015250565b60006126db602183611fc3565b91506126e68261267f565b604082019050919050565b6000602082019050818103600083015261270a816126ce565b9050919050565b7f4552433732313a20617070726f76652063616c6c6572206973206e6f74206f7760008201527f6e6572206e6f7220617070726f76656420666f7220616c6c0000000000000000602082015250565b600061276d603883611fc3565b915061277882612711565b604082019050919050565b6000602082019050818103600083015261279c81612760565b9050919050565b7f4552433732313a207472616e736665722063616c6c6572206973206e6f74206f60008201527f776e6572206e6f7220617070726f766564000000000000000000000000000000602082015250565b60006127ff603183611fc3565b915061280a826127a3565b604082019050919050565b6000602082019050818103600083015261282e816127f2565b9050919050565b7f4552433732313a206f776e657220717565727920666f72206e6f6e657869737460008201527f656e7420746f6b656e0000000000000000000000000000000000000000000000602082015250565b6000612891602983611fc3565b915061289c82612835565b604082019050919050565b600060208201905081810360008301526128c081612884565b9050919050565b7f4552433732313a2062616c616e636520717565727920666f7220746865207a6560008201527f726f206164647265737300000000000000000000000000000000000000000000602082015250565b6000612923602a83611fc3565b915061292e826128c7565b604082019050919050565b6000602082019050818103600083015261295281612916565b9050919050565b7f4552433732314d657461646174613a2055524920717565727920666f72206e6f60008201527f6e6578697374656e7420746f6b656e0000000000000000000000000000000000602082015250565b60006129b5602f83611fc3565b91506129c082612959565b604082019050919050565b600060208201905081810360008301526129e4816129a8565b9050919050565b600081905092915050565b6000612a0182611fb8565b612a0b81856129eb565b9350612a1b818560208601611fd4565b80840191505092915050565b6000612a3382856129f6565b9150612a3f82846129f6565b91508190509392505050565b7f4e487b7100000000000000000000000000000000000000000000000000000000600052603260045260246000fd5b7f4f6e6c79206f776e6572206f662074686520616464726573732063616e20706560008201527f72666f726d20616374696f6e732e000000000000000000000000000000000000602082015250565b6000612ad6602e83611fc3565b9150612ae182612a7a565b604082019050919050565b60006020820190508181036000830152612b0581612ac9565b9050919050565b6000604082019050612b2160008301856122fe565b612b2e6020830184612108565b9392505050565b7f4f6e6c7920617574686f72697a65642061646472657365732063616e2070657260008201527f666f726d20616374696f6e732e00000000000000000000000000000000000000602082015250565b6000612b91602d83611fc3565b9150612b9c82612b35565b604082019050919050565b60006020820190508181036000830152612bc081612b84565b9050919050565b6000819050919050565b612be2612bdd82612073565b612bc7565b82525050565b6000612bf48284612bd1565b60208201915081905092915050565b7f4e487b7100000000000000000000000000000000000000000000000000000000600052601160045260246000fd5b6000612c3d82612073565b9150612c4883612073565b9250827fffffffffffffffffffffffffffffffffffffffffffffffffffffffffffffffff03821115612c7d57612c7c612c03565b5b828201905092915050565b600081519050612c9781612328565b92915050565b600060208284031215612cb357612cb2611ef3565b5b6000612cc184828501612c88565b91505092915050565b7f4f6e6c79207665726966696564206164647265737365732063616e207065726660008201527f6f726d20616374696f6e732e0000000000000000000000000000000000000000602082015250565b6000612d26602c83611fc3565b9150612d3182612cca565b604082019050919050565b60006020820190508181036000830152612d5581612d19565b9050919050565b7f4f6e6c79206d696e74656420746f6b656e732063616e206265207472616e736660008201527f65727265642e0000000000000000000000000000000000000000000000000000602082015250565b6000612db8602683611fc3565b9150612dc382612d5c565b604082019050919050565b60006020820190508181036000830152612de781612dab565b9050919050565b6000606082019050612e0360008301866122fe565b612e106020830185612108565b612e1d6040830184612108565b949350505050565b7f4552433732313a206f70657261746f7220717565727920666f72206e6f6e657860008201527f697374656e7420746f6b656e0000000000000000000000000000000000000000602082015250565b6000612e81602c83611fc3565b9150612e8c82612e25565b604082019050919050565b60006020820190508181036000830152612eb081612e74565b9050919050565b7f4552433732313a207472616e73666572206f6620746f6b656e2074686174206960008201527f73206e6f74206f776e0000000000000000000000000000000000000000000000602082015250565b6000612f13602983611fc3565b9150612f1e82612eb7565b604082019050919050565b60006020820190508181036000830152612f4281612f06565b9050919050565b7f4552433732313a207472616e7366657220746f20746865207a65726f2061646460008201527f7265737300000000000000000000000000000000000000000000000000000000602082015250565b6000612fa5602483611fc3565b9150612fb082612f49565b604082019050919050565b60006020820190508181036000830152612fd481612f98565b9050919050565b6000612fe682612073565b9150612ff183612073565b92508282101561300457613003612c03565b5b828203905092915050565b7f4552433732313a20617070726f766520746f2063616c6c657200000000000000600082015250565b6000613045601983611fc3565b91506130508261300f565b602082019050919050565b6000602082019050818103600083015261307481613038565b9050919050565b7f4552433732313a207472616e7366657220746f206e6f6e20455243373231526560008201527f63656976657220696d706c656d656e7465720000000000000000000000000000602082015250565b60006130d7603283611fc3565b91506130e28261307b565b604082019050919050565b60006020820190508181036000830152613106816130ca565b9050919050565b600061311882612073565b91507fffffffffffffffffffffffffffffffffffffffffffffffffffffffffffffffff82141561314b5761314a612c03565b5b600182019050919050565b7f4e487b7100000000000000000000000000000000000000000000000000000000600052601260045260246000fd5b600061319082612073565b915061319b83612073565b9250826131ab576131aa613156565b5b828204905092915050565b60006131c182612073565b91506131cc83612073565b9250826131dc576131db613156565b5b828206905092915050565b600081519050919050565b600082825260208201905092915050565b600061320e826131e7565b61321881856131f2565b9350613228818560208601611fd4565b61323181612007565b840191505092915050565b60006080820190506132516000830187612108565b61325e6020830186612108565b61326b60408301856122fe565b818103606083015261327d8184613203565b905095945050505050565b60008151905061329781611f29565b92915050565b6000602082840312156132b3576132b2611ef3565b5b60006132c184828501613288565b91505092915050565b7f4552433732313a206d696e7420746f20746865207a65726f2061646472657373600082015250565b6000613300602083611fc3565b915061330b826132ca565b602082019050919050565b6000602082019050818103600083015261332f816132f3565b9050919050565b7f4552433732313a20746f6b656e20616c7265616479206d696e74656400000000600082015250565b600061336c601c83611fc3565b915061337782613336565b602082019050919050565b6000602082019050818103600083015261339b8161335f565b905091905056fea2646970667358221220de33db09caa032f208cd36885d8165a32243d6adbe1d0bdab123c50c2c8a9ce664736f6c634300080b0033",
  "immutableReferences": {},
  "source": "// SPDX-License-Identifier: MIT\npragma solidity ^0.8.5;\n\n//solhint-disable-next-line\nimport \"@openzeppelin/contracts/token/ERC721/ERC721.sol\";\nimport \"@openzeppelin/contracts/access/Ownable.sol\";\nimport \"./LegalEntityVerification.sol\";\n\n/**\n    Features:\n    -> Manufacturer mints a token representing the product.\n    -> Hash of the serial number, zip code of the factory will\n    be included in the Product struct.\n    -> When the product is given to next entity, the transfer function\n    will be called and the ownership will be transfered to the next owner.\n    -> It should be possible to trace the output to its original \n    manifacturer.\n\n    Time |t=0 ->                                      -> t=t\n    -------------------------------------------------------\n    Owner|Factory -mints-> A1 -transfer-> A2 -transfer-> A3\n    //TODO: Redo this part.\n    Origin of A3: Factory then. You can trace the transfers in the contract data.\n\n    //TODO: Refactor that there may be several factories, add functions corresponding to that.\n */\n\n\n/// @title Provenance tracking system for manifactured items using ERC721-tokens.\n/// @author Deniz Surmeli\n/// @author Doukan Trksoy\n/// @notice Use it only for simulation\n/// @dev Contract is a ERC721 implementation.\ncontract Provenance is ERC721{\n    /// @notice The production process is serialized, thus we will use this\n    /// field as a counter.\n    uint256 public serialId = 0;\n    /// @notice The deployer of the contract will be the factory. It's the only entity that can mint. \n    address public factory;\n    /// @notice Observe that we need to store the deployed address in order to call functions from it.\n    address public legalEntityContractAddress;\n\n    /// @notice For structured information.\n    struct Product{\n        bytes32 _serialHash; //hash of the serial id. \n        uint256 _manufacturerZipCode; //zip code of the manufacturer. In fact, this is a constant. \n    }\n\n    /// @notice Emits when tokens are transferred.\n    event TokenTransferred(uint256 tokenId,address from,address to);\n\n    /// @notice Emits when an owner approves the ownership.\n    event TokenApproved(uint256 tokenId,address tokenOwner);\n\n    mapping(uint256=>Product) products;\n\n    /// @notice We use this mapping to track the origins of the products.\n    mapping(uint256=>address[]) owners;\n\n    /// @notice We track is in approval or not.\n    mapping(uint256=>bool) approvalState;\n\n    /// @notice Only addresses that have been approved by state authority can perform actions.\n    /// @param _address address to be queried. \n    modifier onlyVerifiedAddress(address _address){\n        LegalEntityVerification friendContract = LegalEntityVerification(legalEntityContractAddress);\n        require(friendContract.isVerified(_address),\"Only verified addresses can perform actions.\");\n        _;\n    }\n\n    /// @notice Only tokens that have been minted can perform actions.\n    /// @param _tokenId id of the token.\n    modifier onlyExistentToken(uint256 _tokenId){\n        require(ownerOf(_tokenId) != address(0),\"Only minted tokens can be transferred.\");\n        _;\n    }\n    /// @notice Only tokens that in state of approval can perform actions\n    /// @param _tokenId id of the token.\n    modifier onlyNonApprovedToken(uint256 _tokenId){\n        require(approvalState[_tokenId] == true);\n        _;\n    }\n\n    /// @notice Only authorized addresses can perform actions.\n    /// @param _address address to be queried. \n    modifier onlyAuthorized(address _address){\n        require(factory == _address,\"Only authorized addreses can perform actions.\");\n        _;\n    }\n\n    /// @notice Only the owner of the token can perform actions.\n    /// @param _tokenId ID of the token to be queried against. \n    /// @param _address In query address. \n    modifier onlyOwner(uint256 _tokenId,address _address){\n        require(ownerOf(_tokenId) ==  _address,\"Only owner of the address can perform actions.\");\n        _;\n    }\n    \n    /// @notice Constructor of the Provenance system.\n    /// @param name_ name of the contract,factory name.\n    /// @param symbol_ symbol of the contract,factory symbol.\n    /// @param auxAddress Address of the helper contract, LegalEntityVerification.\n    constructor(string memory name_,string memory symbol_,address auxAddress) ERC721(name_,symbol_) {\n        factory = msg.sender;\n        legalEntityContractAddress = auxAddress;\n    }\n    /// @notice Ownership approval function. Observe that we are going a bit offroad from ERC-721 Standard here.\n    /// @param _tokenId Token that will be approved. \n    function approveOwnership(uint256 _tokenId) onlyOwner(_tokenId,msg.sender) onlyNonApprovedToken(_tokenId) public{\n        owners[_tokenId].push(msg.sender);\n        approvalState[_tokenId] = false;\n        emit TokenApproved(_tokenId,msg.sender);\n    }\n\n    /// @notice Transfers the token with _tokenId from _from to _to.\n    /// @param _from Address that is transfering.\n    /// @param _to   Address to be transfered.\n    /// @param _tokenId ID of the token to be transfered.\n    function transferToken(address _from,address _to, uint256 _tokenId) onlyOwner(_tokenId,_from) onlyVerifiedAddress(_to) onlyExistentToken(_tokenId)  public {\n        require(_to != ownerOf(_tokenId));\n        _transfer(_from,_to,_tokenId);\n        approvalState[_tokenId] = true;\n        emit TokenTransferred(_tokenId,_from,_to);\n    }\n    \n    /// @notice A manufacturer mints a product. Only authorized addreses can call.\n    /// @dev First mint is directly to the factory. \n    function mintProductToken(uint256 _zipCode) onlyAuthorized(msg.sender) public {\n        //wrap the parameters in a clearer way for code readability.\n        uint256 productId = serialId;  \n        uint256 manufacturerZipCode = _zipCode;\n        _safeMint(msg.sender,productId); //mint the token, using the ERC721 implementation. Since the company is the minter,and only company members(see:onlyAuthorized) can call the mint, msg.sender is the first receiver automatically. \n        // build product fields and map it to the corresponding address. \n\n        products[productId] = Product({\n            _serialHash : keccak256(abi.encodePacked(productId)),\n            _manufacturerZipCode: manufacturerZipCode\n        });\n        \n        approvalState[productId] = true;\n        //auto-approve transfer for factory\n        approveOwnership(productId);\n\n        // increment the id by one since it's serialized. \n        serialId += 1; \n\n                 \n    }\n\n    /// @notice Fetch the origin address of the product.\n    /// @param _tokenId Tokenized product data's id for indexing. \n    /// @return address of the origin manufacturer. \n    function getTheOriginAddress(uint256 _tokenId) public view returns(address){\n        return owners[_tokenId][0];\n    }\n\n\n    /// @notice Gets the factory address.(for testing purposes)\n    /// @return the factory address.\n    function getFactoryAddress() public view returns(address){\n        return factory;\n    }\n\n    /// @notice Gets the approval state of the token\n    /// @return the token id\n    function getApprovalState(uint256 _tokenId) public view returns(bool){\n        return approvalState[_tokenId];\n    }\n    \n    /// @notice Returns the list of all owners for a token.(for testing purposes)\n    /// @param _tokenId tokenId to be queried.\n    /// @return an array of all owners.\n    function getAllOwners(uint256 _tokenId) public view returns(address[] memory){\n        return owners[_tokenId];\n    }\n}",
  "sourcePath": "/Users/denizsurmeli/Desktop/interface/contracts/Provenance.sol",
  "compiler": {
    "name": "solc",
    "version": "0.8.11+commit.d7f03943.Emscripten.clang"
  },
  "schemaVersion": "3.4.4",
  "updatedAt": "2021-12-30T18:53:46.297Z",
  "networkType": "ethereum",
  "devdoc": {
    "author": "Deniz SurmeliDoukan Trksoy",
    "details": "Contract is a ERC721 implementation.",
    "kind": "dev",
    "methods": {
      "approve(address,uint256)": {
        "details": "See {IERC721-approve}."
      },
      "approveOwnership(uint256)": {
        "params": {
          "_tokenId": "Token that will be approved. "
        }
      },
      "balanceOf(address)": {
        "details": "See {IERC721-balanceOf}."
      },
      "constructor": {
        "params": {
          "auxAddress": "Address of the helper contract, LegalEntityVerification.",
          "name_": "name of the contract,factory name.",
          "symbol_": "symbol of the contract,factory symbol."
        }
      },
      "getAllOwners(uint256)": {
        "params": {
          "_tokenId": "tokenId to be queried."
        },
        "returns": {
          "_0": "an array of all owners."
        }
      },
      "getApprovalState(uint256)": {
        "returns": {
          "_0": "the token id"
        }
      },
      "getApproved(uint256)": {
        "details": "See {IERC721-getApproved}."
      },
      "getFactoryAddress()": {
        "returns": {
          "_0": "the factory address."
        }
      },
      "getTheOriginAddress(uint256)": {
        "params": {
          "_tokenId": "Tokenized product data's id for indexing. "
        },
        "returns": {
          "_0": "address of the origin manufacturer. "
        }
      },
      "isApprovedForAll(address,address)": {
        "details": "See {IERC721-isApprovedForAll}."
      },
      "mintProductToken(uint256)": {
        "details": "First mint is directly to the factory. "
      },
      "name()": {
        "details": "See {IERC721Metadata-name}."
      },
      "ownerOf(uint256)": {
        "details": "See {IERC721-ownerOf}."
      },
      "safeTransferFrom(address,address,uint256)": {
        "details": "See {IERC721-safeTransferFrom}."
      },
      "safeTransferFrom(address,address,uint256,bytes)": {
        "details": "See {IERC721-safeTransferFrom}."
      },
      "setApprovalForAll(address,bool)": {
        "details": "See {IERC721-setApprovalForAll}."
      },
      "supportsInterface(bytes4)": {
        "details": "See {IERC165-supportsInterface}."
      },
      "symbol()": {
        "details": "See {IERC721Metadata-symbol}."
      },
      "tokenURI(uint256)": {
        "details": "See {IERC721Metadata-tokenURI}."
      },
      "transferFrom(address,address,uint256)": {
        "details": "See {IERC721-transferFrom}."
      },
      "transferToken(address,address,uint256)": {
        "params": {
          "_from": "Address that is transfering.",
          "_to": "Address to be transfered.",
          "_tokenId": "ID of the token to be transfered."
        }
      }
    },
    "title": "Provenance tracking system for manifactured items using ERC721-tokens.",
    "version": 1
  },
  "userdoc": {
    "events": {
      "TokenApproved(uint256,address)": {
        "notice": "Emits when an owner approves the ownership."
      },
      "TokenTransferred(uint256,address,address)": {
        "notice": "Emits when tokens are transferred."
      }
    },
    "kind": "user",
    "methods": {
      "approveOwnership(uint256)": {
        "notice": "Ownership approval function. Observe that we are going a bit offroad from ERC-721 Standard here."
      },
      "constructor": {
        "notice": "Constructor of the Provenance system."
      },
      "factory()": {
        "notice": "The deployer of the contract will be the factory. It's the only entity that can mint. "
      },
      "getAllOwners(uint256)": {
        "notice": "Returns the list of all owners for a token.(for testing purposes)"
      },
      "getApprovalState(uint256)": {
        "notice": "Gets the approval state of the token"
      },
      "getFactoryAddress()": {
        "notice": "Gets the factory address.(for testing purposes)"
      },
      "getTheOriginAddress(uint256)": {
        "notice": "Fetch the origin address of the product."
      },
      "legalEntityContractAddress()": {
        "notice": "Observe that we need to store the deployed address in order to call functions from it."
      },
      "mintProductToken(uint256)": {
        "notice": "A manufacturer mints a product. Only authorized addreses can call."
      },
      "serialId()": {
        "notice": "The production process is serialized, thus we will use this field as a counter."
      },
      "transferToken(address,address,uint256)": {
        "notice": "Transfers the token with _tokenId from _from to _to."
      }
    },
    "notice": "Use it only for simulation",
    "version": 1
  }
}